{
  "contractName": "EncodeNFT",
  "abi": [
    {
      "inputs": [
        {
          "internalType": "address",
          "name": "_token",
          "type": "address"
        },
        {
          "internalType": "uint256",
          "name": "airdropExpiry",
          "type": "uint256"
        },
        {
          "internalType": "string",
          "name": "_baseURIPath",
          "type": "string"
        }
      ],
      "stateMutability": "nonpayable",
      "type": "constructor"
    },
    {
      "anonymous": false,
      "inputs": [
        {
          "indexed": true,
          "internalType": "address",
          "name": "_to",
          "type": "address"
        },
        {
          "indexed": false,
          "internalType": "uint256",
          "name": "_tokenId",
          "type": "uint256"
        }
      ],
      "name": "AirDrop",
      "type": "event"
    },
    {
      "anonymous": false,
      "inputs": [
        {
          "indexed": true,
          "internalType": "address",
          "name": "owner",
          "type": "address"
        },
        {
          "indexed": true,
          "internalType": "address",
          "name": "approved",
          "type": "address"
        },
        {
          "indexed": true,
          "internalType": "uint256",
          "name": "tokenId",
          "type": "uint256"
        }
      ],
      "name": "Approval",
      "type": "event"
    },
    {
      "anonymous": false,
      "inputs": [
        {
          "indexed": true,
          "internalType": "address",
          "name": "owner",
          "type": "address"
        },
        {
          "indexed": true,
          "internalType": "address",
          "name": "operator",
          "type": "address"
        },
        {
          "indexed": false,
          "internalType": "bool",
          "name": "approved",
          "type": "bool"
        }
      ],
      "name": "ApprovalForAll",
      "type": "event"
    },
    {
      "anonymous": false,
      "inputs": [
        {
          "indexed": true,
          "internalType": "address",
          "name": "_from",
          "type": "address"
        },
        {
          "indexed": true,
          "internalType": "address",
          "name": "_to",
          "type": "address"
        },
        {
          "indexed": false,
          "internalType": "uint256",
          "name": "_tokenId",
          "type": "uint256"
        }
      ],
      "name": "Mint",
      "type": "event"
    },
    {
      "anonymous": false,
      "inputs": [
        {
          "indexed": true,
          "internalType": "address",
          "name": "from",
          "type": "address"
        },
        {
          "indexed": true,
          "internalType": "address",
          "name": "to",
          "type": "address"
        },
        {
          "indexed": true,
          "internalType": "uint256",
          "name": "tokenId",
          "type": "uint256"
        }
      ],
      "name": "Transfer",
      "type": "event"
    },
    {
      "anonymous": false,
      "inputs": [
        {
          "indexed": true,
          "internalType": "address",
          "name": "_from",
          "type": "address"
        },
        {
          "indexed": true,
          "internalType": "address",
          "name": "_to",
          "type": "address"
        },
        {
          "indexed": false,
          "internalType": "uint256",
          "name": "_tokenId",
          "type": "uint256"
        }
      ],
      "name": "TransferBLU",
      "type": "event"
    },
    {
      "inputs": [
        {
          "internalType": "address",
          "name": "to",
          "type": "address"
        },
        {
          "internalType": "uint256",
          "name": "tokenId",
          "type": "uint256"
        }
      ],
      "name": "approve",
      "outputs": [],
      "stateMutability": "nonpayable",
      "type": "function"
    },
    {
      "inputs": [
        {
          "internalType": "address",
          "name": "owner",
          "type": "address"
        }
      ],
      "name": "balanceOf",
      "outputs": [
        {
          "internalType": "uint256",
          "name": "",
          "type": "uint256"
        }
      ],
      "stateMutability": "view",
      "type": "function",
      "constant": true
    },
    {
      "inputs": [
        {
          "internalType": "uint256",
          "name": "tokenId",
          "type": "uint256"
        }
      ],
      "name": "getApproved",
      "outputs": [
        {
          "internalType": "address",
          "name": "",
          "type": "address"
        }
      ],
      "stateMutability": "view",
      "type": "function",
      "constant": true
    },
    {
      "inputs": [
        {
          "internalType": "address",
          "name": "owner",
          "type": "address"
        },
        {
          "internalType": "address",
          "name": "operator",
          "type": "address"
        }
      ],
      "name": "isApprovedForAll",
      "outputs": [
        {
          "internalType": "bool",
          "name": "",
          "type": "bool"
        }
      ],
      "stateMutability": "view",
      "type": "function",
      "constant": true
    },
    {
      "inputs": [],
      "name": "name",
      "outputs": [
        {
          "internalType": "string",
          "name": "",
          "type": "string"
        }
      ],
      "stateMutability": "view",
      "type": "function",
      "constant": true
    },
    {
      "inputs": [
        {
          "internalType": "uint256",
          "name": "tokenId",
          "type": "uint256"
        }
      ],
      "name": "ownerOf",
      "outputs": [
        {
          "internalType": "address",
          "name": "",
          "type": "address"
        }
      ],
      "stateMutability": "view",
      "type": "function",
      "constant": true
    },
    {
      "inputs": [
        {
          "internalType": "address",
          "name": "operator",
          "type": "address"
        },
        {
          "internalType": "bool",
          "name": "approved",
          "type": "bool"
        }
      ],
      "name": "setApprovalForAll",
      "outputs": [],
      "stateMutability": "nonpayable",
      "type": "function"
    },
    {
      "inputs": [],
      "name": "symbol",
      "outputs": [
        {
          "internalType": "string",
          "name": "",
          "type": "string"
        }
      ],
      "stateMutability": "view",
      "type": "function",
      "constant": true
    },
    {
      "inputs": [
        {
          "internalType": "uint256",
          "name": "index",
          "type": "uint256"
        }
      ],
      "name": "tokenByIndex",
      "outputs": [
        {
          "internalType": "uint256",
          "name": "",
          "type": "uint256"
        }
      ],
      "stateMutability": "view",
      "type": "function",
      "constant": true
    },
    {
      "inputs": [
        {
          "internalType": "address",
          "name": "owner",
          "type": "address"
        },
        {
          "internalType": "uint256",
          "name": "index",
          "type": "uint256"
        }
      ],
      "name": "tokenOfOwnerByIndex",
      "outputs": [
        {
          "internalType": "uint256",
          "name": "",
          "type": "uint256"
        }
      ],
      "stateMutability": "view",
      "type": "function",
      "constant": true
    },
    {
      "inputs": [],
      "name": "totalSupply",
      "outputs": [
        {
          "internalType": "uint256",
          "name": "",
          "type": "uint256"
        }
      ],
      "stateMutability": "view",
      "type": "function",
      "constant": true
    },
    {
      "inputs": [
        {
          "internalType": "address",
          "name": "from",
          "type": "address"
        },
        {
          "internalType": "address",
          "name": "to",
          "type": "address"
        },
        {
          "internalType": "uint256",
          "name": "tokenId",
          "type": "uint256"
        }
      ],
      "name": "transferFrom",
      "outputs": [],
      "stateMutability": "nonpayable",
      "type": "function"
    },
    {
      "inputs": [
        {
          "internalType": "uint256",
          "name": "tokenId",
          "type": "uint256"
        }
      ],
      "name": "tokenURI",
      "outputs": [
        {
          "internalType": "string",
          "name": "",
          "type": "string"
        }
      ],
      "stateMutability": "view",
      "type": "function",
      "constant": true
    },
    {
      "inputs": [
        {
          "internalType": "bytes4",
          "name": "interfaceId",
          "type": "bytes4"
        }
      ],
      "name": "supportsInterface",
      "outputs": [
        {
          "internalType": "bool",
          "name": "",
          "type": "bool"
        }
      ],
      "stateMutability": "view",
      "type": "function",
      "constant": true
    },
    {
      "inputs": [
        {
          "internalType": "address",
          "name": "_user",
          "type": "address"
        },
        {
          "internalType": "string[]",
          "name": "_tokenURI",
          "type": "string[]"
        }
      ],
      "name": "safemint",
      "outputs": [],
      "stateMutability": "nonpayable",
      "type": "function"
    },
    {
      "inputs": [
        {
          "internalType": "uint256",
          "name": "tokenID",
          "type": "uint256"
        }
      ],
      "name": "getTokenAirdropStatus",
      "outputs": [
        {
          "internalType": "bool",
          "name": "",
          "type": "bool"
        }
      ],
      "stateMutability": "view",
      "type": "function",
      "constant": true
    },
    {
      "inputs": [
        {
          "internalType": "uint256",
          "name": "tokenID",
          "type": "uint256"
        },
        {
          "internalType": "bool",
          "name": "value",
          "type": "bool"
        }
      ],
      "name": "updateAirdropStatus",
      "outputs": [],
      "stateMutability": "nonpayable",
      "type": "function"
    },
    {
      "inputs": [
        {
          "internalType": "address",
          "name": "from",
          "type": "address"
        },
        {
          "internalType": "address",
          "name": "to",
          "type": "address"
        },
        {
          "internalType": "uint256",
          "name": "tokenID",
          "type": "uint256"
        }
      ],
      "name": "safeTransfer",
      "outputs": [],
      "stateMutability": "nonpayable",
      "type": "function"
    },
    {
      "inputs": [
        {
          "internalType": "address",
          "name": "from",
          "type": "address"
        },
        {
          "internalType": "address",
          "name": "to",
          "type": "address"
        },
        {
          "internalType": "uint256",
          "name": "tokenID",
          "type": "uint256"
        }
      ],
      "name": "safeTransferFrom",
      "outputs": [],
      "stateMutability": "nonpayable",
      "type": "function"
    },
    {
      "inputs": [
        {
          "internalType": "address",
          "name": "from",
          "type": "address"
        },
        {
          "internalType": "address",
          "name": "to",
          "type": "address"
        },
        {
          "internalType": "uint256",
          "name": "tokenId",
          "type": "uint256"
        },
        {
          "internalType": "bytes",
          "name": "_data",
          "type": "bytes"
        }
      ],
      "name": "safeTransferFrom",
      "outputs": [],
      "stateMutability": "nonpayable",
      "type": "function"
    },
    {
      "inputs": [
        {
          "internalType": "string",
          "name": "_newBaseURI",
          "type": "string"
        }
      ],
      "name": "setBaseURI",
      "outputs": [],
      "stateMutability": "nonpayable",
      "type": "function"
    },
    {
      "inputs": [
        {
          "internalType": "uint256",
          "name": "timestamp",
          "type": "uint256"
        }
      ],
      "name": "updateExpiry",
      "outputs": [],
      "stateMutability": "nonpayable",
      "type": "function"
    }
  ],
  "bytecode": "0x60806040523480156200001157600080fd5b50604051620046e6380380620046e6833981810160405281019062000037919062000543565b6040518060400160405280600981526020017f456e636f64654e465400000000000000000000000000000000000000000000008152506040518060400160405280600481526020017f454e4654000000000000000000000000000000000000000000000000000000008152508160009080519060200190620000bb92919062000256565b508060019080519060200190620000d492919062000256565b50505033600b60006101000a81548173ffffffffffffffffffffffffffffffffffffffff021916908373ffffffffffffffffffffffffffffffffffffffff16021790555062000129816200019160201b60201c565b82601060006101000a81548173ffffffffffffffffffffffffffffffffffffffff021916908373ffffffffffffffffffffffffffffffffffffffff16021790555081600c8190555062000188600f6200024060201b6200100a1760201c565b505050620006a6565b3373ffffffffffffffffffffffffffffffffffffffff16600b60009054906101000a900473ffffffffffffffffffffffffffffffffffffffff1673ffffffffffffffffffffffffffffffffffffffff161462000224576040517f08c379a00000000000000000000000000000000000000000000000000000000081526004016200021b906200061f565b60405180910390fd5b80600d90805190602001906200023c92919062000256565b5050565b6001816000016000828254019250508190555050565b828054620002649062000670565b90600052602060002090601f016020900481019282620002885760008555620002d4565b82601f10620002a357805160ff1916838001178555620002d4565b82800160010185558215620002d4579182015b82811115620002d3578251825591602001919060010190620002b6565b5b509050620002e39190620002e7565b5090565b5b8082111562000302576000816000905550600101620002e8565b5090565b6000604051905090565b600080fd5b600080fd5b600073ffffffffffffffffffffffffffffffffffffffff82169050919050565b600062000347826200031a565b9050919050565b62000359816200033a565b81146200036557600080fd5b50565b60008151905062000379816200034e565b92915050565b6000819050919050565b62000394816200037f565b8114620003a057600080fd5b50565b600081519050620003b48162000389565b92915050565b600080fd5b600080fd5b6000601f19601f8301169050919050565b7f4e487b7100000000000000000000000000000000000000000000000000000000600052604160045260246000fd5b6200040f82620003c4565b810181811067ffffffffffffffff82111715620004315762000430620003d5565b5b80604052505050565b60006200044662000306565b905062000454828262000404565b919050565b600067ffffffffffffffff821115620004775762000476620003d5565b5b6200048282620003c4565b9050602081019050919050565b60005b83811015620004af57808201518184015260208101905062000492565b83811115620004bf576000848401525b50505050565b6000620004dc620004d68462000459565b6200043a565b905082815260208101848484011115620004fb57620004fa620003bf565b5b620005088482856200048f565b509392505050565b600082601f830112620005285762000527620003ba565b5b81516200053a848260208601620004c5565b91505092915050565b6000806000606084860312156200055f576200055e62000310565b5b60006200056f8682870162000368565b93505060206200058286828701620003a3565b925050604084015167ffffffffffffffff811115620005a657620005a562000315565b5b620005b48682870162000510565b9150509250925092565b600082825260208201905092915050565b7f43616c6c6572206973206e6f7420746865206f776e6572000000000000000000600082015250565b600062000607601783620005be565b91506200061482620005cf565b602082019050919050565b600060208201905081810360008301526200063a81620005f8565b9050919050565b7f4e487b7100000000000000000000000000000000000000000000000000000000600052602260045260246000fd5b600060028204905060018216806200068957607f821691505b60208210811415620006a0576200069f62000641565b5b50919050565b61403080620006b66000396000f3fe608060405234801561001057600080fd5b50600436106101425760003560e01c80636352211e116100b8578063c87b56dd1161007c578063c87b56dd14610399578063d1660f99146103c9578063d359f82c146103e5578063d58114ca14610401578063e985e9c51461041d578063fb52f99b1461044d57610142565b80636352211e146102e357806370a082311461031357806395d89b4114610343578063a22cb46514610361578063b88d4fde1461037d57610142565b806323b872dd1161010a57806323b872dd146101ff5780632f745c591461021b57806342842e0e1461024b5780634f6ccce71461026757806355f804b3146102975780635be155c1146102b357610142565b806301ffc9a71461014757806306fdde0314610177578063081812fc14610195578063095ea7b3146101c557806318160ddd146101e1575b600080fd5b610161600480360381019061015c91906128ec565b610469565b60405161016e9190612934565b60405180910390f35b61017f61047b565b60405161018c91906129e8565b60405180910390f35b6101af60048036038101906101aa9190612a40565b61050d565b6040516101bc9190612aae565b60405180910390f35b6101df60048036038101906101da9190612af5565b610592565b005b6101e96106aa565b6040516101f69190612b44565b60405180910390f35b61021960048036038101906102149190612b5f565b6106b7565b005b61023560048036038101906102309190612af5565b610717565b6040516102429190612b44565b60405180910390f35b61026560048036038101906102609190612b5f565b6107bc565b005b610281600480360381019061027c9190612a40565b61084b565b60405161028e9190612b44565b60405180910390f35b6102b160048036038101906102ac9190612ce7565b6108bc565b005b6102cd60048036038101906102c89190612a40565b610966565b6040516102da9190612934565b60405180910390f35b6102fd60048036038101906102f89190612a40565b610990565b60405161030a9190612aae565b60405180910390f35b61032d60048036038101906103289190612d30565b610a42565b60405161033a9190612b44565b60405180910390f35b61034b610afa565b60405161035891906129e8565b60405180910390f35b61037b60048036038101906103769190612d89565b610b8c565b005b61039760048036038101906103929190612e6a565b610ba2565b005b6103b360048036038101906103ae9190612a40565b610c04565b6040516103c091906129e8565b60405180910390f35b6103e360048036038101906103de9190612b5f565b610c16565b005b6103ff60048036038101906103fa9190612a40565b610ca5565b005b61041b60048036038101906104169190612eed565b610d4b565b005b61043760048036038101906104329190612f2d565b610e0a565b6040516104449190612934565b60405180910390f35b61046760048036038101906104629190613053565b610e9e565b005b600061047482611020565b9050919050565b60606000805461048a906130de565b80601f01602080910402602001604051908101604052809291908181526020018280546104b6906130de565b80156105035780601f106104d857610100808354040283529160200191610503565b820191906000526020600020905b8154815290600101906020018083116104e657829003601f168201915b5050505050905090565b60006105188261109a565b610557576040517f08c379a000000000000000000000000000000000000000000000000000000000815260040161054e90613182565b60405180910390fd5b6004600083815260200190815260200160002060009054906101000a900473ffffffffffffffffffffffffffffffffffffffff169050919050565b600061059d82610990565b90508073ffffffffffffffffffffffffffffffffffffffff168373ffffffffffffffffffffffffffffffffffffffff16141561060e576040517f08c379a000000000000000000000000000000000000000000000000000000000815260040161060590613214565b60405180910390fd5b8073ffffffffffffffffffffffffffffffffffffffff1661062d611106565b73ffffffffffffffffffffffffffffffffffffffff16148061065c575061065b81610656611106565b610e0a565b5b61069b576040517f08c379a0000000000000000000000000000000000000000000000000000000008152600401610692906132a6565b60405180910390fd5b6106a5838361110e565b505050565b6000600880549050905090565b6106c86106c2611106565b826111c7565b610707576040517f08c379a00000000000000000000000000000000000000000000000000000000081526004016106fe90613338565b60405180910390fd5b6107128383836112a5565b505050565b600061072283610a42565b8210610763576040517f08c379a000000000000000000000000000000000000000000000000000000000815260040161075a906133ca565b60405180910390fd5b600660008473ffffffffffffffffffffffffffffffffffffffff1673ffffffffffffffffffffffffffffffffffffffff168152602001908152602001600020600083815260200190815260200160002054905092915050565b6107d783838360405180602001604052806000815250610ba2565b8173ffffffffffffffffffffffffffffffffffffffff168373ffffffffffffffffffffffffffffffffffffffff167fdd651628848cee35472a563c2112f04417e22c07fa297f3b1dfe190126b331de836040516108349190612b44565b60405180910390a3610846818361150c565b505050565b60006108556106aa565b8210610896576040517f08c379a000000000000000000000000000000000000000000000000000000000815260040161088d9061345c565b60405180910390fd5b600882815481106108aa576108a961347c565b5b90600052602060002001549050919050565b3373ffffffffffffffffffffffffffffffffffffffff16600b60009054906101000a900473ffffffffffffffffffffffffffffffffffffffff1673ffffffffffffffffffffffffffffffffffffffff161461094c576040517f08c379a0000000000000000000000000000000000000000000000000000000008152600401610943906134f7565b60405180910390fd5b80600d90805190602001906109629291906127dd565b5050565b6000600e600083815260200190815260200160002060009054906101000a900460ff169050919050565b6000806002600084815260200190815260200160002060009054906101000a900473ffffffffffffffffffffffffffffffffffffffff169050600073ffffffffffffffffffffffffffffffffffffffff168173ffffffffffffffffffffffffffffffffffffffff161415610a39576040517f08c379a0000000000000000000000000000000000000000000000000000000008152600401610a3090613589565b60405180910390fd5b80915050919050565b60008073ffffffffffffffffffffffffffffffffffffffff168273ffffffffffffffffffffffffffffffffffffffff161415610ab3576040517f08c379a0000000000000000000000000000000000000000000000000000000008152600401610aaa9061361b565b60405180910390fd5b600360008373ffffffffffffffffffffffffffffffffffffffff1673ffffffffffffffffffffffffffffffffffffffff168152602001908152602001600020549050919050565b606060018054610b09906130de565b80601f0160208091040260200160405190810160405280929190818152602001828054610b35906130de565b8015610b825780601f10610b5757610100808354040283529160200191610b82565b820191906000526020600020905b815481529060010190602001808311610b6557829003601f168201915b5050505050905090565b610b9e610b97611106565b838361181b565b5050565b610bb3610bad611106565b836111c7565b610bf2576040517f08c379a0000000000000000000000000000000000000000000000000000000008152600401610be990613338565b60405180910390fd5b610bfe84848484611988565b50505050565b6060610c0f826119e4565b9050919050565b610c3183838360405180602001604052806000815250610ba2565b8173ffffffffffffffffffffffffffffffffffffffff168373ffffffffffffffffffffffffffffffffffffffff167fdd651628848cee35472a563c2112f04417e22c07fa297f3b1dfe190126b331de83604051610c8e9190612b44565b60405180910390a3610ca0818361150c565b505050565b3373ffffffffffffffffffffffffffffffffffffffff16600b60009054906101000a900473ffffffffffffffffffffffffffffffffffffffff1673ffffffffffffffffffffffffffffffffffffffff1614610d35576040517f08c379a0000000000000000000000000000000000000000000000000000000008152600401610d2c906134f7565b60405180910390fd5b428111610d4157600080fd5b80600c8190555050565b3373ffffffffffffffffffffffffffffffffffffffff16600b60009054906101000a900473ffffffffffffffffffffffffffffffffffffffff1673ffffffffffffffffffffffffffffffffffffffff1614610ddb576040517f08c379a0000000000000000000000000000000000000000000000000000000008152600401610dd2906134f7565b60405180910390fd5b80600e600084815260200190815260200160002060006101000a81548160ff0219169083151502179055505050565b6000600560008473ffffffffffffffffffffffffffffffffffffffff1673ffffffffffffffffffffffffffffffffffffffff16815260200190815260200160002060008373ffffffffffffffffffffffffffffffffffffffff1673ffffffffffffffffffffffffffffffffffffffff16815260200190815260200160002060009054906101000a900460ff16905092915050565b3373ffffffffffffffffffffffffffffffffffffffff16600b60009054906101000a900473ffffffffffffffffffffffffffffffffffffffff1673ffffffffffffffffffffffffffffffffffffffff1614610f2e576040517f08c379a0000000000000000000000000000000000000000000000000000000008152600401610f25906134f7565b60405180910390fd5b60005b815181101561100557610f4d83610f48600f611b36565b611b44565b610f7a610f5a600f611b36565b838381518110610f6d57610f6c61347c565b5b6020026020010151611b62565b610f84600f61100a565b8273ffffffffffffffffffffffffffffffffffffffff163373ffffffffffffffffffffffffffffffffffffffff167fab8530f87dc9b59234c4623bf917212bb2536d647574c8e7e5da92c2ede0c9f8610fdd600f611b36565b604051610fea9190612b44565b60405180910390a38080610ffd9061366a565b915050610f31565b505050565b6001816000016000828254019250508190555050565b60007f780e9d63000000000000000000000000000000000000000000000000000000007bffffffffffffffffffffffffffffffffffffffffffffffffffffffff1916827bffffffffffffffffffffffffffffffffffffffffffffffffffffffff19161480611093575061109282611bd6565b5b9050919050565b60008073ffffffffffffffffffffffffffffffffffffffff166002600084815260200190815260200160002060009054906101000a900473ffffffffffffffffffffffffffffffffffffffff1673ffffffffffffffffffffffffffffffffffffffff1614159050919050565b600033905090565b816004600083815260200190815260200160002060006101000a81548173ffffffffffffffffffffffffffffffffffffffff021916908373ffffffffffffffffffffffffffffffffffffffff160217905550808273ffffffffffffffffffffffffffffffffffffffff1661118183610990565b73ffffffffffffffffffffffffffffffffffffffff167f8c5be1e5ebec7d5bd14f71427d1e84f3dd0314c0f7b2291e5b200ac8c7c3b92560405160405180910390a45050565b60006111d28261109a565b611211576040517f08c379a000000000000000000000000000000000000000000000000000000000815260040161120890613725565b60405180910390fd5b600061121c83610990565b90508073ffffffffffffffffffffffffffffffffffffffff168473ffffffffffffffffffffffffffffffffffffffff16148061128b57508373ffffffffffffffffffffffffffffffffffffffff166112738461050d565b73ffffffffffffffffffffffffffffffffffffffff16145b8061129c575061129b8185610e0a565b5b91505092915050565b8273ffffffffffffffffffffffffffffffffffffffff166112c582610990565b73ffffffffffffffffffffffffffffffffffffffff161461131b576040517f08c379a0000000000000000000000000000000000000000000000000000000008152600401611312906137b7565b60405180910390fd5b600073ffffffffffffffffffffffffffffffffffffffff168273ffffffffffffffffffffffffffffffffffffffff16141561138b576040517f08c379a000000000000000000000000000000000000000000000000000000000815260040161138290613849565b60405180910390fd5b611396838383611cb8565b6113a160008261110e565b6001600360008573ffffffffffffffffffffffffffffffffffffffff1673ffffffffffffffffffffffffffffffffffffffff16815260200190815260200160002060008282546113f19190613869565b925050819055506001600360008473ffffffffffffffffffffffffffffffffffffffff1673ffffffffffffffffffffffffffffffffffffffff1681526020019081526020016000206000828254611448919061389d565b92505081905550816002600083815260200190815260200160002060006101000a81548173ffffffffffffffffffffffffffffffffffffffff021916908373ffffffffffffffffffffffffffffffffffffffff160217905550808273ffffffffffffffffffffffffffffffffffffffff168473ffffffffffffffffffffffffffffffffffffffff167fddf252ad1be2c89b69c2b068fc378daa952ba7f163c4a11628f55a4df523b3ef60405160405180910390a4611507838383611cc8565b505050565b60001515600e600084815260200190815260200160002060009054906101000a900460ff1615151480156115455750611543611ccd565b155b1561179d576001821015801561155d57506103e88211155b1561161057601060009054906101000a900473ffffffffffffffffffffffffffffffffffffffff1673ffffffffffffffffffffffffffffffffffffffff1663a9059cbb82678ac7230489e800006040518363ffffffff1660e01b81526004016115c7929190613938565b6020604051808303816000875af11580156115e6573d6000803e3d6000fd5b505050506040513d601f19601f8201168201806040525081019061160a9190613976565b5061179c565b6103e88211801561162357506104b08211155b156116d757601060009054906101000a900473ffffffffffffffffffffffffffffffffffffffff1673ffffffffffffffffffffffffffffffffffffffff1663a9059cbb826802b5e3af16b18800006040518363ffffffff1660e01b815260040161168e9291906139de565b6020604051808303816000875af11580156116ad573d6000803e3d6000fd5b505050506040513d601f19601f820116820180604052508101906116d19190613976565b5061179b565b6104b0821180156116ea57506104e28211155b1561179a57601060009054906101000a900473ffffffffffffffffffffffffffffffffffffffff1673ffffffffffffffffffffffffffffffffffffffff1663a9059cbb8268056bc75e2d631000006040518363ffffffff1660e01b8152600401611755929190613a42565b6020604051808303816000875af1158015611774573d6000803e3d6000fd5b505050506040513d601f19601f820116820180604052508101906117989190613976565b505b5b5b5b6001600e600084815260200190815260200160002060006101000a81548160ff0219169083151502179055508073ffffffffffffffffffffffffffffffffffffffff167f2a2f3a6f457f222229acc6b14376a5d3f4344fae935675150a096e2f1056bd988360405161180f9190612b44565b60405180910390a25050565b8173ffffffffffffffffffffffffffffffffffffffff168373ffffffffffffffffffffffffffffffffffffffff16141561188a576040517f08c379a000000000000000000000000000000000000000000000000000000000815260040161188190613ab7565b60405180910390fd5b80600560008573ffffffffffffffffffffffffffffffffffffffff1673ffffffffffffffffffffffffffffffffffffffff16815260200190815260200160002060008473ffffffffffffffffffffffffffffffffffffffff1673ffffffffffffffffffffffffffffffffffffffff16815260200190815260200160002060006101000a81548160ff0219169083151502179055508173ffffffffffffffffffffffffffffffffffffffff168373ffffffffffffffffffffffffffffffffffffffff167f17307eab39ab6107e8899845ad3d59bd9653f200f220920489ca2b5937696c318360405161197b9190612934565b60405180910390a3505050565b6119938484846112a5565b61199f84848484611cda565b6119de576040517f08c379a00000000000000000000000000000000000000000000000000000000081526004016119d590613b49565b60405180910390fd5b50505050565b60606119ef8261109a565b611a2e576040517f08c379a0000000000000000000000000000000000000000000000000000000008152600401611a2590613bdb565b60405180910390fd5b6000600a60008481526020019081526020016000208054611a4e906130de565b80601f0160208091040260200160405190810160405280929190818152602001828054611a7a906130de565b8015611ac75780601f10611a9c57610100808354040283529160200191611ac7565b820191906000526020600020905b815481529060010190602001808311611aaa57829003601f168201915b505050505090506000611ad8611e62565b9050600081511415611aee578192505050611b31565b600082511115611b23578082604051602001611b0b929190613c37565b60405160208183030381529060405292505050611b31565b611b2c84611ef4565b925050505b919050565b600081600001549050919050565b611b5e828260405180602001604052806000815250611f9b565b5050565b611b6b8261109a565b611baa576040517f08c379a0000000000000000000000000000000000000000000000000000000008152600401611ba190613ccd565b60405180910390fd5b80600a60008481526020019081526020016000209080519060200190611bd19291906127dd565b505050565b60007f80ac58cd000000000000000000000000000000000000000000000000000000007bffffffffffffffffffffffffffffffffffffffffffffffffffffffff1916827bffffffffffffffffffffffffffffffffffffffffffffffffffffffff19161480611ca157507f5b5e139f000000000000000000000000000000000000000000000000000000007bffffffffffffffffffffffffffffffffffffffffffffffffffffffff1916827bffffffffffffffffffffffffffffffffffffffffffffffffffffffff1916145b80611cb15750611cb082611ff6565b5b9050919050565b611cc3838383612060565b505050565b505050565b6000600c54421015905090565b6000611cfb8473ffffffffffffffffffffffffffffffffffffffff16612174565b15611e55578373ffffffffffffffffffffffffffffffffffffffff1663150b7a02611d24611106565b8786866040518563ffffffff1660e01b8152600401611d469493929190613d42565b6020604051808303816000875af1925050508015611d8257506040513d601f19601f82011682018060405250810190611d7f9190613da3565b60015b611e05573d8060008114611db2576040519150601f19603f3d011682016040523d82523d6000602084013e611db7565b606091505b50600081511415611dfd576040517f08c379a0000000000000000000000000000000000000000000000000000000008152600401611df490613b49565b60405180910390fd5b805181602001fd5b63150b7a0260e01b7bffffffffffffffffffffffffffffffffffffffffffffffffffffffff1916817bffffffffffffffffffffffffffffffffffffffffffffffffffffffff191614915050611e5a565b600190505b949350505050565b6060600d8054611e71906130de565b80601f0160208091040260200160405190810160405280929190818152602001828054611e9d906130de565b8015611eea5780601f10611ebf57610100808354040283529160200191611eea565b820191906000526020600020905b815481529060010190602001808311611ecd57829003601f168201915b5050505050905090565b6060611eff8261109a565b611f3e576040517f08c379a0000000000000000000000000000000000000000000000000000000008152600401611f3590613e42565b60405180910390fd5b6000611f48611e62565b90506000815111611f685760405180602001604052806000815250611f93565b80611f7284612197565b604051602001611f83929190613c37565b6040516020818303038152906040525b915050919050565b611fa583836122f8565b611fb26000848484611cda565b611ff1576040517f08c379a0000000000000000000000000000000000000000000000000000000008152600401611fe890613b49565b60405180910390fd5b505050565b60007f01ffc9a7000000000000000000000000000000000000000000000000000000007bffffffffffffffffffffffffffffffffffffffffffffffffffffffff1916827bffffffffffffffffffffffffffffffffffffffffffffffffffffffff1916149050919050565b61206b8383836124d2565b600073ffffffffffffffffffffffffffffffffffffffff168373ffffffffffffffffffffffffffffffffffffffff1614156120ae576120a9816124d7565b6120ed565b8173ffffffffffffffffffffffffffffffffffffffff168373ffffffffffffffffffffffffffffffffffffffff16146120ec576120eb8382612520565b5b5b600073ffffffffffffffffffffffffffffffffffffffff168273ffffffffffffffffffffffffffffffffffffffff1614156121305761212b8161268d565b61216f565b8273ffffffffffffffffffffffffffffffffffffffff168273ffffffffffffffffffffffffffffffffffffffff161461216e5761216d828261275e565b5b5b505050565b6000808273ffffffffffffffffffffffffffffffffffffffff163b119050919050565b606060008214156121df576040518060400160405280600181526020017f300000000000000000000000000000000000000000000000000000000000000081525090506122f3565b600082905060005b600082146122115780806121fa9061366a565b915050600a8261220a9190613e91565b91506121e7565b60008167ffffffffffffffff81111561222d5761222c612bbc565b5b6040519080825280601f01601f19166020018201604052801561225f5781602001600182028036833780820191505090505b5090505b600085146122ec576001826122789190613869565b9150600a856122879190613ec2565b6030612293919061389d565b60f81b8183815181106122a9576122a861347c565b5b60200101907effffffffffffffffffffffffffffffffffffffffffffffffffffffffffffff1916908160001a905350600a856122e59190613e91565b9450612263565b8093505050505b919050565b600073ffffffffffffffffffffffffffffffffffffffff168273ffffffffffffffffffffffffffffffffffffffff161415612368576040517f08c379a000000000000000000000000000000000000000000000000000000000815260040161235f90613f3f565b60405180910390fd5b6123718161109a565b156123b1576040517f08c379a00000000000000000000000000000000000000000000000000000000081526004016123a890613fab565b60405180910390fd5b6123bd60008383611cb8565b6001600360008473ffffffffffffffffffffffffffffffffffffffff1673ffffffffffffffffffffffffffffffffffffffff168152602001908152602001600020600082825461240d919061389d565b92505081905550816002600083815260200190815260200160002060006101000a81548173ffffffffffffffffffffffffffffffffffffffff021916908373ffffffffffffffffffffffffffffffffffffffff160217905550808273ffffffffffffffffffffffffffffffffffffffff16600073ffffffffffffffffffffffffffffffffffffffff167fddf252ad1be2c89b69c2b068fc378daa952ba7f163c4a11628f55a4df523b3ef60405160405180910390a46124ce60008383611cc8565b5050565b505050565b6008805490506009600083815260200190815260200160002081905550600881908060018154018082558091505060019003906000526020600020016000909190919091505550565b6000600161252d84610a42565b6125379190613869565b905060006007600084815260200190815260200160002054905081811461261c576000600660008673ffffffffffffffffffffffffffffffffffffffff1673ffffffffffffffffffffffffffffffffffffffff168152602001908152602001600020600084815260200190815260200160002054905080600660008773ffffffffffffffffffffffffffffffffffffffff1673ffffffffffffffffffffffffffffffffffffffff168152602001908152602001600020600084815260200190815260200160002081905550816007600083815260200190815260200160002081905550505b6007600084815260200190815260200160002060009055600660008573ffffffffffffffffffffffffffffffffffffffff1673ffffffffffffffffffffffffffffffffffffffff16815260200190815260200160002060008381526020019081526020016000206000905550505050565b600060016008805490506126a19190613869565b90506000600960008481526020019081526020016000205490506000600883815481106126d1576126d061347c565b5b9060005260206000200154905080600883815481106126f3576126f261347c565b5b90600052602060002001819055508160096000838152602001908152602001600020819055506009600085815260200190815260200160002060009055600880548061274257612741613fcb565b5b6001900381819060005260206000200160009055905550505050565b600061276983610a42565b905081600660008573ffffffffffffffffffffffffffffffffffffffff1673ffffffffffffffffffffffffffffffffffffffff168152602001908152602001600020600083815260200190815260200160002081905550806007600084815260200190815260200160002081905550505050565b8280546127e9906130de565b90600052602060002090601f01602090048101928261280b5760008555612852565b82601f1061282457805160ff1916838001178555612852565b82800160010185558215612852579182015b82811115612851578251825591602001919060010190612836565b5b50905061285f9190612863565b5090565b5b8082111561287c576000816000905550600101612864565b5090565b6000604051905090565b600080fd5b600080fd5b60007fffffffff0000000000000000000000000000000000000000000000000000000082169050919050565b6128c981612894565b81146128d457600080fd5b50565b6000813590506128e6816128c0565b92915050565b6000602082840312156129025761290161288a565b5b6000612910848285016128d7565b91505092915050565b60008115159050919050565b61292e81612919565b82525050565b60006020820190506129496000830184612925565b92915050565b600081519050919050565b600082825260208201905092915050565b60005b8381101561298957808201518184015260208101905061296e565b83811115612998576000848401525b50505050565b6000601f19601f8301169050919050565b60006129ba8261294f565b6129c4818561295a565b93506129d481856020860161296b565b6129dd8161299e565b840191505092915050565b60006020820190508181036000830152612a0281846129af565b905092915050565b6000819050919050565b612a1d81612a0a565b8114612a2857600080fd5b50565b600081359050612a3a81612a14565b92915050565b600060208284031215612a5657612a5561288a565b5b6000612a6484828501612a2b565b91505092915050565b600073ffffffffffffffffffffffffffffffffffffffff82169050919050565b6000612a9882612a6d565b9050919050565b612aa881612a8d565b82525050565b6000602082019050612ac36000830184612a9f565b92915050565b612ad281612a8d565b8114612add57600080fd5b50565b600081359050612aef81612ac9565b92915050565b60008060408385031215612b0c57612b0b61288a565b5b6000612b1a85828601612ae0565b9250506020612b2b85828601612a2b565b9150509250929050565b612b3e81612a0a565b82525050565b6000602082019050612b596000830184612b35565b92915050565b600080600060608486031215612b7857612b7761288a565b5b6000612b8686828701612ae0565b9350506020612b9786828701612ae0565b9250506040612ba886828701612a2b565b9150509250925092565b600080fd5b600080fd5b7f4e487b7100000000000000000000000000000000000000000000000000000000600052604160045260246000fd5b612bf48261299e565b810181811067ffffffffffffffff82111715612c1357612c12612bbc565b5b80604052505050565b6000612c26612880565b9050612c328282612beb565b919050565b600067ffffffffffffffff821115612c5257612c51612bbc565b5b612c5b8261299e565b9050602081019050919050565b82818337600083830152505050565b6000612c8a612c8584612c37565b612c1c565b905082815260208101848484011115612ca657612ca5612bb7565b5b612cb1848285612c68565b509392505050565b600082601f830112612cce57612ccd612bb2565b5b8135612cde848260208601612c77565b91505092915050565b600060208284031215612cfd57612cfc61288a565b5b600082013567ffffffffffffffff811115612d1b57612d1a61288f565b5b612d2784828501612cb9565b91505092915050565b600060208284031215612d4657612d4561288a565b5b6000612d5484828501612ae0565b91505092915050565b612d6681612919565b8114612d7157600080fd5b50565b600081359050612d8381612d5d565b92915050565b60008060408385031215612da057612d9f61288a565b5b6000612dae85828601612ae0565b9250506020612dbf85828601612d74565b9150509250929050565b600067ffffffffffffffff821115612de457612de3612bbc565b5b612ded8261299e565b9050602081019050919050565b6000612e0d612e0884612dc9565b612c1c565b905082815260208101848484011115612e2957612e28612bb7565b5b612e34848285612c68565b509392505050565b600082601f830112612e5157612e50612bb2565b5b8135612e61848260208601612dfa565b91505092915050565b60008060008060808587031215612e8457612e8361288a565b5b6000612e9287828801612ae0565b9450506020612ea387828801612ae0565b9350506040612eb487828801612a2b565b925050606085013567ffffffffffffffff811115612ed557612ed461288f565b5b612ee187828801612e3c565b91505092959194509250565b60008060408385031215612f0457612f0361288a565b5b6000612f1285828601612a2b565b9250506020612f2385828601612d74565b9150509250929050565b60008060408385031215612f4457612f4361288a565b5b6000612f5285828601612ae0565b9250506020612f6385828601612ae0565b9150509250929050565b600067ffffffffffffffff821115612f8857612f87612bbc565b5b602082029050602081019050919050565b600080fd5b6000612fb1612fac84612f6d565b612c1c565b90508083825260208201905060208402830185811115612fd457612fd3612f99565b5b835b8181101561301b57803567ffffffffffffffff811115612ff957612ff8612bb2565b5b8086016130068982612cb9565b85526020850194505050602081019050612fd6565b5050509392505050565b600082601f83011261303a57613039612bb2565b5b813561304a848260208601612f9e565b91505092915050565b6000806040838503121561306a5761306961288a565b5b600061307885828601612ae0565b925050602083013567ffffffffffffffff8111156130995761309861288f565b5b6130a585828601613025565b9150509250929050565b7f4e487b7100000000000000000000000000000000000000000000000000000000600052602260045260246000fd5b600060028204905060018216806130f657607f821691505b6020821081141561310a576131096130af565b5b50919050565b7f4552433732313a20617070726f76656420717565727920666f72206e6f6e657860008201527f697374656e7420746f6b656e0000000000000000000000000000000000000000602082015250565b600061316c602c8361295a565b915061317782613110565b604082019050919050565b6000602082019050818103600083015261319b8161315f565b9050919050565b7f4552433732313a20617070726f76616c20746f2063757272656e74206f776e6560008201527f7200000000000000000000000000000000000000000000000000000000000000602082015250565b60006131fe60218361295a565b9150613209826131a2565b604082019050919050565b6000602082019050818103600083015261322d816131f1565b9050919050565b7f4552433732313a20617070726f76652063616c6c6572206973206e6f74206f7760008201527f6e6572206e6f7220617070726f76656420666f7220616c6c0000000000000000602082015250565b600061329060388361295a565b915061329b82613234565b604082019050919050565b600060208201905081810360008301526132bf81613283565b9050919050565b7f4552433732313a207472616e736665722063616c6c6572206973206e6f74206f60008201527f776e6572206e6f7220617070726f766564000000000000000000000000000000602082015250565b600061332260318361295a565b915061332d826132c6565b604082019050919050565b6000602082019050818103600083015261335181613315565b9050919050565b7f455243373231456e756d657261626c653a206f776e657220696e646578206f7560008201527f74206f6620626f756e6473000000000000000000000000000000000000000000602082015250565b60006133b4602b8361295a565b91506133bf82613358565b604082019050919050565b600060208201905081810360008301526133e3816133a7565b9050919050565b7f455243373231456e756d657261626c653a20676c6f62616c20696e646578206f60008201527f7574206f6620626f756e64730000000000000000000000000000000000000000602082015250565b6000613446602c8361295a565b9150613451826133ea565b604082019050919050565b6000602082019050818103600083015261347581613439565b9050919050565b7f4e487b7100000000000000000000000000000000000000000000000000000000600052603260045260246000fd5b7f43616c6c6572206973206e6f7420746865206f776e6572000000000000000000600082015250565b60006134e160178361295a565b91506134ec826134ab565b602082019050919050565b60006020820190508181036000830152613510816134d4565b9050919050565b7f4552433732313a206f776e657220717565727920666f72206e6f6e657869737460008201527f656e7420746f6b656e0000000000000000000000000000000000000000000000602082015250565b600061357360298361295a565b915061357e82613517565b604082019050919050565b600060208201905081810360008301526135a281613566565b9050919050565b7f4552433732313a2062616c616e636520717565727920666f7220746865207a6560008201527f726f206164647265737300000000000000000000000000000000000000000000602082015250565b6000613605602a8361295a565b9150613610826135a9565b604082019050919050565b60006020820190508181036000830152613634816135f8565b9050919050565b7f4e487b7100000000000000000000000000000000000000000000000000000000600052601160045260246000fd5b600061367582612a0a565b91507fffffffffffffffffffffffffffffffffffffffffffffffffffffffffffffffff8214156136a8576136a761363b565b5b600182019050919050565b7f4552433732313a206f70657261746f7220717565727920666f72206e6f6e657860008201527f697374656e7420746f6b656e0000000000000000000000000000000000000000602082015250565b600061370f602c8361295a565b915061371a826136b3565b604082019050919050565b6000602082019050818103600083015261373e81613702565b9050919050565b7f4552433732313a207472616e736665722066726f6d20696e636f72726563742060008201527f6f776e6572000000000000000000000000000000000000000000000000000000602082015250565b60006137a160258361295a565b91506137ac82613745565b604082019050919050565b600060208201905081810360008301526137d081613794565b9050919050565b7f4552433732313a207472616e7366657220746f20746865207a65726f2061646460008201527f7265737300000000000000000000000000000000000000000000000000000000602082015250565b600061383360248361295a565b915061383e826137d7565b604082019050919050565b6000602082019050818103600083015261386281613826565b9050919050565b600061387482612a0a565b915061387f83612a0a565b9250828210156138925761389161363b565b5b828203905092915050565b60006138a882612a0a565b91506138b383612a0a565b9250827fffffffffffffffffffffffffffffffffffffffffffffffffffffffffffffffff038211156138e8576138e761363b565b5b828201905092915050565b6000819050919050565b6000819050919050565b600061392261391d613918846138f3565b6138fd565b612a0a565b9050919050565b61393281613907565b82525050565b600060408201905061394d6000830185612a9f565b61395a6020830184613929565b9392505050565b60008151905061397081612d5d565b92915050565b60006020828403121561398c5761398b61288a565b5b600061399a84828501613961565b91505092915050565b6000819050919050565b60006139c86139c36139be846139a3565b6138fd565b612a0a565b9050919050565b6139d8816139ad565b82525050565b60006040820190506139f36000830185612a9f565b613a0060208301846139cf565b9392505050565b6000819050919050565b6000613a2c613a27613a2284613a07565b6138fd565b612a0a565b9050919050565b613a3c81613a11565b82525050565b6000604082019050613a576000830185612a9f565b613a646020830184613a33565b9392505050565b7f4552433732313a20617070726f766520746f2063616c6c657200000000000000600082015250565b6000613aa160198361295a565b9150613aac82613a6b565b602082019050919050565b60006020820190508181036000830152613ad081613a94565b9050919050565b7f4552433732313a207472616e7366657220746f206e6f6e20455243373231526560008201527f63656976657220696d706c656d656e7465720000000000000000000000000000602082015250565b6000613b3360328361295a565b9150613b3e82613ad7565b604082019050919050565b60006020820190508181036000830152613b6281613b26565b9050919050565b7f45524337323155524953746f726167653a2055524920717565727920666f722060008201527f6e6f6e6578697374656e7420746f6b656e000000000000000000000000000000602082015250565b6000613bc560318361295a565b9150613bd082613b69565b604082019050919050565b60006020820190508181036000830152613bf481613bb8565b9050919050565b600081905092915050565b6000613c118261294f565b613c1b8185613bfb565b9350613c2b81856020860161296b565b80840191505092915050565b6000613c438285613c06565b9150613c4f8284613c06565b91508190509392505050565b7f45524337323155524953746f726167653a2055524920736574206f66206e6f6e60008201527f6578697374656e7420746f6b656e000000000000000000000000000000000000602082015250565b6000613cb7602e8361295a565b9150613cc282613c5b565b604082019050919050565b60006020820190508181036000830152613ce681613caa565b9050919050565b600081519050919050565b600082825260208201905092915050565b6000613d1482613ced565b613d1e8185613cf8565b9350613d2e81856020860161296b565b613d378161299e565b840191505092915050565b6000608082019050613d576000830187612a9f565b613d646020830186612a9f565b613d716040830185612b35565b8181036060830152613d838184613d09565b905095945050505050565b600081519050613d9d816128c0565b92915050565b600060208284031215613db957613db861288a565b5b6000613dc784828501613d8e565b91505092915050565b7f4552433732314d657461646174613a2055524920717565727920666f72206e6f60008201527f6e6578697374656e7420746f6b656e0000000000000000000000000000000000602082015250565b6000613e2c602f8361295a565b9150613e3782613dd0565b604082019050919050565b60006020820190508181036000830152613e5b81613e1f565b9050919050565b7f4e487b7100000000000000000000000000000000000000000000000000000000600052601260045260246000fd5b6000613e9c82612a0a565b9150613ea783612a0a565b925082613eb757613eb6613e62565b5b828204905092915050565b6000613ecd82612a0a565b9150613ed883612a0a565b925082613ee857613ee7613e62565b5b828206905092915050565b7f4552433732313a206d696e7420746f20746865207a65726f2061646472657373600082015250565b6000613f2960208361295a565b9150613f3482613ef3565b602082019050919050565b60006020820190508181036000830152613f5881613f1c565b9050919050565b7f4552433732313a20746f6b656e20616c7265616479206d696e74656400000000600082015250565b6000613f95601c8361295a565b9150613fa082613f5f565b602082019050919050565b60006020820190508181036000830152613fc481613f88565b9050919050565b7f4e487b7100000000000000000000000000000000000000000000000000000000600052603160045260246000fdfea264697066735822122052fbef0f09c35bbe74679807d98e43a15c08954392905b70c53880f0de99167f64736f6c634300080b0033",
  "immutableReferences": {},
  "source": "//SPDX-License-Identifier: UNLICENSED\npragma solidity ^0.8.11;\n\nimport \"@openzeppelin/contracts/access/Ownable.sol\";\nimport \"@openzeppelin/contracts/token/ERC721/ERC721.sol\";\nimport \"@openzeppelin/contracts/token/ERC20/IERC20.sol\";\nimport \"@openzeppelin/contracts/token/ERC721/extensions/ERC721Enumerable.sol\";\nimport \"@openzeppelin/contracts/token/ERC721/extensions/ERC721URIStorage.sol\";\nimport \"@openzeppelin/contracts/utils/Counters.sol\";\n\n//EncodeNFT contract to deploy and mint NFT\ncontract EncodeNFT is ERC721(\"EncodeNFT\", \"ENFT\"),ERC721Enumerable,ERC721URIStorage {\n    using Counters for Counters.Counter;\n    address private owner;\n    uint256 expiryDate;\n    string baseURI;\n    mapping(uint256 => bool) tokenAirdropStatus;\n    Counters.Counter private tokenIdCounter;\n    //token that needed to be airdropped\n    IERC20 bluTokenAddress;\n\n\n\n    //event to be emmitted when the minting is succeeded\n    event Mint(address indexed _from, address indexed _to, uint256 _tokenId);\n\n    //emit when someone transfering/buying BLU NFT\n    event TransferBLU(\n        address indexed _from,\n        address indexed _to,\n        uint256 _tokenId\n    );\n\n    //emitting Airdrop event whenever the tokens are airdropped to an address\n    event AirDrop(address indexed _to, uint256 _tokenId);\n\n    modifier onlyOwner() {\n        require(owner == msg.sender, \"Caller is not the owner\");\n        _;\n    }\n\n     function _beforeTokenTransfer(address from, address to, uint256 tokenId)\n        internal\n        override(ERC721, ERC721Enumerable)\n    {\n        super._beforeTokenTransfer(from, to, tokenId);\n    }\n\n    function _burn(uint256 tokenId) internal override (ERC721, ERC721URIStorage) {\n        super._burn(tokenId);\n    }\n\n    function tokenURI(uint256 tokenId)\n        public\n        view\n        override(ERC721, ERC721URIStorage)\n        returns (string memory)\n    {\n        return super.tokenURI(tokenId);\n    }\n\n   function _baseURI() internal view virtual override returns (string memory) {\n    return baseURI;\n  }\n\n    function supportsInterface(bytes4 interfaceId)\n        public\n        view\n        override(ERC721, ERC721Enumerable)\n        returns (bool)\n    {\n        return super.supportsInterface(interfaceId);\n    }\n\n    constructor(address _token, uint256 airdropExpiry, string memory _baseURIPath) {\n        owner = msg.sender;\n        setBaseURI(_baseURIPath);\n        bluTokenAddress = IERC20(_token);\n        expiryDate = airdropExpiry;\n        tokenIdCounter.increment();\n    }\n\n    //minting the NFT tokens by the owner of the contract\n    function safemint(\n        address _user,\n        string[] memory _tokenURI\n    ) public onlyOwner {\n        for(uint i = 0; i < _tokenURI.length; i ++){\n        _safeMint(_user, tokenIdCounter.current());\n        _setTokenURI(tokenIdCounter.current(),_tokenURI[i]);\n        tokenIdCounter.increment();\n        emit Mint(msg.sender, _user, tokenIdCounter.current());\n        }\n\n    }\n\n    function getTokenAirdropStatus(uint256 tokenID) public view returns (bool) {\n        return tokenAirdropStatus[tokenID];\n    }\n\n    function updateAirdropStatus(uint256 tokenID, bool value) public onlyOwner\n    {\n        tokenAirdropStatus[tokenID] = value;\n    }\n\n    /*\n    tranfering the NFT token from one user to another and \n    if an NFT is first time then the user will be airdropped with the social tokens\n    */\n    function safeTransfer(\n        address from,\n        address to,\n        uint256 tokenID\n    ) public {\n        safeTransferFrom(from, to, tokenID, \"\");\n        emit TransferBLU(from, to, tokenID);\n        airDropping(tokenID,to);\n    }\n\n    function safeTransferFrom(\n        address from,\n        address to,\n        uint256 tokenID\n    ) public override {\n        safeTransferFrom(from, to, tokenID, \"\");\n        emit TransferBLU(from, to, tokenID);\n        airDropping(tokenID,to);\n    }\n\n   function airDropping(uint256  tokenID, address _to) private  {\n       if(tokenAirdropStatus[tokenID]==false && !isExpired())   {\n        if (tokenID >= 1 && tokenID <= 1000)\n                bluTokenAddress.transfer(_to, 10 * 10 ** 18);\n        else if (tokenID > 1000 && tokenID <= 1200)\n                bluTokenAddress.transfer(_to, 50 * 10 ** 18);\n        else if (tokenID > 1200 && tokenID <= 1250)\n                bluTokenAddress.transfer(_to, 100 * 10 ** 18);\n       }\n        \n        tokenAirdropStatus[tokenID] = true;\n        emit AirDrop(_to, tokenID);\n   }\n\n   function setBaseURI(string memory _newBaseURI) public onlyOwner {\n    baseURI = _newBaseURI;\n  }\n\n    function isExpired() private view returns (bool) {\n        return (block.timestamp >= expiryDate);\n    }\n\n    function updateExpiry(uint256 timestamp) public onlyOwner {\n        require(timestamp > block.timestamp);\n        expiryDate = timestamp;\n    }\n}\n",
  "sourcePath": "/Users/shankarraomata/Documents/money_boss/smartcontracts/contracts/EncodeNFT.sol",
  "compiler": {
    "name": "solc",
    "version": "0.8.11+commit.d7f03943.Emscripten.clang"
  },
  "schemaVersion": "3.4.4",
  "updatedAt": "2023-08-30T12:30:36.273Z",
  "networkType": "ethereum",
  "devdoc": {
    "kind": "dev",
    "methods": {
      "approve(address,uint256)": {
        "details": "See {IERC721-approve}."
      },
      "balanceOf(address)": {
        "details": "See {IERC721-balanceOf}."
      },
      "getApproved(uint256)": {
        "details": "See {IERC721-getApproved}."
      },
      "isApprovedForAll(address,address)": {
        "details": "See {IERC721-isApprovedForAll}."
      },
      "name()": {
        "details": "See {IERC721Metadata-name}."
      },
      "ownerOf(uint256)": {
        "details": "See {IERC721-ownerOf}."
      },
      "safeTransferFrom(address,address,uint256,bytes)": {
        "details": "See {IERC721-safeTransferFrom}."
      },
      "setApprovalForAll(address,bool)": {
        "details": "See {IERC721-setApprovalForAll}."
      },
      "symbol()": {
        "details": "See {IERC721Metadata-symbol}."
      },
      "tokenByIndex(uint256)": {
        "details": "See {IERC721Enumerable-tokenByIndex}."
      },
      "tokenOfOwnerByIndex(address,uint256)": {
        "details": "See {IERC721Enumerable-tokenOfOwnerByIndex}."
      },
      "totalSupply()": {
        "details": "See {IERC721Enumerable-totalSupply}."
      },
      "transferFrom(address,address,uint256)": {
        "details": "See {IERC721-transferFrom}."
      }
    },
    "version": 1
  },
  "userdoc": {
    "kind": "user",
    "methods": {},
    "version": 1
  }
}