{
  "contractName": "TestERC20",
  "abi": [
    {
      "inputs": [
        {
          "internalType": "string",
          "name": "_name",
          "type": "string"
        },
        {
          "internalType": "string",
          "name": "_symbol",
          "type": "string"
        },
        {
          "internalType": "uint256",
          "name": "_initialSupply",
          "type": "uint256"
        }
      ],
      "stateMutability": "nonpayable",
      "type": "constructor"
    },
    {
      "anonymous": false,
      "inputs": [
        {
          "indexed": true,
          "internalType": "address",
          "name": "owner",
          "type": "address"
        },
        {
          "indexed": true,
          "internalType": "address",
          "name": "spender",
          "type": "address"
        },
        {
          "indexed": false,
          "internalType": "uint256",
          "name": "value",
          "type": "uint256"
        }
      ],
      "name": "Approval",
      "type": "event"
    },
    {
      "anonymous": false,
      "inputs": [
        {
          "indexed": true,
          "internalType": "address",
          "name": "from",
          "type": "address"
        },
        {
          "indexed": true,
          "internalType": "address",
          "name": "to",
          "type": "address"
        },
        {
          "indexed": false,
          "internalType": "uint256",
          "name": "value",
          "type": "uint256"
        }
      ],
      "name": "Transfer",
      "type": "event"
    },
    {
      "inputs": [
        {
          "internalType": "address",
          "name": "owner",
          "type": "address"
        },
        {
          "internalType": "address",
          "name": "spender",
          "type": "address"
        }
      ],
      "name": "allowance",
      "outputs": [
        {
          "internalType": "uint256",
          "name": "",
          "type": "uint256"
        }
      ],
      "stateMutability": "view",
      "type": "function"
    },
    {
      "inputs": [
        {
          "internalType": "address",
          "name": "spender",
          "type": "address"
        },
        {
          "internalType": "uint256",
          "name": "amount",
          "type": "uint256"
        }
      ],
      "name": "approve",
      "outputs": [
        {
          "internalType": "bool",
          "name": "",
          "type": "bool"
        }
      ],
      "stateMutability": "nonpayable",
      "type": "function"
    },
    {
      "inputs": [
        {
          "internalType": "address",
          "name": "account",
          "type": "address"
        }
      ],
      "name": "balanceOf",
      "outputs": [
        {
          "internalType": "uint256",
          "name": "",
          "type": "uint256"
        }
      ],
      "stateMutability": "view",
      "type": "function"
    },
    {
      "inputs": [],
      "name": "decimals",
      "outputs": [
        {
          "internalType": "uint8",
          "name": "",
          "type": "uint8"
        }
      ],
      "stateMutability": "view",
      "type": "function"
    },
    {
      "inputs": [
        {
          "internalType": "address",
          "name": "spender",
          "type": "address"
        },
        {
          "internalType": "uint256",
          "name": "subtractedValue",
          "type": "uint256"
        }
      ],
      "name": "decreaseAllowance",
      "outputs": [
        {
          "internalType": "bool",
          "name": "",
          "type": "bool"
        }
      ],
      "stateMutability": "nonpayable",
      "type": "function"
    },
    {
      "inputs": [
        {
          "internalType": "address",
          "name": "spender",
          "type": "address"
        },
        {
          "internalType": "uint256",
          "name": "addedValue",
          "type": "uint256"
        }
      ],
      "name": "increaseAllowance",
      "outputs": [
        {
          "internalType": "bool",
          "name": "",
          "type": "bool"
        }
      ],
      "stateMutability": "nonpayable",
      "type": "function"
    },
    {
      "inputs": [],
      "name": "name",
      "outputs": [
        {
          "internalType": "string",
          "name": "",
          "type": "string"
        }
      ],
      "stateMutability": "view",
      "type": "function"
    },
    {
      "inputs": [],
      "name": "symbol",
      "outputs": [
        {
          "internalType": "string",
          "name": "",
          "type": "string"
        }
      ],
      "stateMutability": "view",
      "type": "function"
    },
    {
      "inputs": [],
      "name": "totalSupply",
      "outputs": [
        {
          "internalType": "uint256",
          "name": "",
          "type": "uint256"
        }
      ],
      "stateMutability": "view",
      "type": "function"
    },
    {
      "inputs": [
        {
          "internalType": "address",
          "name": "to",
          "type": "address"
        },
        {
          "internalType": "uint256",
          "name": "amount",
          "type": "uint256"
        }
      ],
      "name": "transfer",
      "outputs": [
        {
          "internalType": "bool",
          "name": "",
          "type": "bool"
        }
      ],
      "stateMutability": "nonpayable",
      "type": "function"
    },
    {
      "inputs": [
        {
          "internalType": "address",
          "name": "from",
          "type": "address"
        },
        {
          "internalType": "address",
          "name": "to",
          "type": "address"
        },
        {
          "internalType": "uint256",
          "name": "amount",
          "type": "uint256"
        }
      ],
      "name": "transferFrom",
      "outputs": [
        {
          "internalType": "bool",
          "name": "",
          "type": "bool"
        }
      ],
      "stateMutability": "nonpayable",
      "type": "function"
    },
    {
      "inputs": [
        {
          "internalType": "address",
          "name": "_newOwner",
          "type": "address"
        }
      ],
      "name": "updateOwner",
      "outputs": [],
      "stateMutability": "nonpayable",
      "type": "function"
    },
    {
      "inputs": [
        {
          "internalType": "address[]",
          "name": "_to",
          "type": "address[]"
        },
        {
          "internalType": "uint256",
          "name": "_tokenAmount",
          "type": "uint256"
        }
      ],
      "name": "airDropping",
      "outputs": [],
      "stateMutability": "nonpayable",
      "type": "function"
    }
  ],
  "bytecode": "0x60806040523480156200001157600080fd5b5060405162001ff338038062001ff38339818101604052810190620000379190620004e9565b828281600390805190602001906200005192919062000261565b5080600490805190602001906200006a92919062000261565b50505033600560006101000a81548173ffffffffffffffffffffffffffffffffffffffff021916908373ffffffffffffffffffffffffffffffffffffffff160217905550620000d533670de0b6b3a764000083620000c99190620005b2565b620000de60201b60201c565b50505062000786565b600073ffffffffffffffffffffffffffffffffffffffff168273ffffffffffffffffffffffffffffffffffffffff16141562000151576040517f08c379a0000000000000000000000000000000000000000000000000000000008152600401620001489062000674565b60405180910390fd5b62000165600083836200025760201b60201c565b806002600082825462000179919062000696565b92505081905550806000808473ffffffffffffffffffffffffffffffffffffffff1673ffffffffffffffffffffffffffffffffffffffff1681526020019081526020016000206000828254620001d0919062000696565b925050819055508173ffffffffffffffffffffffffffffffffffffffff16600073ffffffffffffffffffffffffffffffffffffffff167fddf252ad1be2c89b69c2b068fc378daa952ba7f163c4a11628f55a4df523b3ef8360405162000237919062000704565b60405180910390a362000253600083836200025c60201b60201c565b5050565b505050565b505050565b8280546200026f9062000750565b90600052602060002090601f016020900481019282620002935760008555620002df565b82601f10620002ae57805160ff1916838001178555620002df565b82800160010185558215620002df579182015b82811115620002de578251825591602001919060010190620002c1565b5b509050620002ee9190620002f2565b5090565b5b808211156200030d576000816000905550600101620002f3565b5090565b6000604051905090565b600080fd5b600080fd5b600080fd5b600080fd5b6000601f19601f8301169050919050565b7f4e487b7100000000000000000000000000000000000000000000000000000000600052604160045260246000fd5b6200037a826200032f565b810181811067ffffffffffffffff821117156200039c576200039b62000340565b5b80604052505050565b6000620003b162000311565b9050620003bf82826200036f565b919050565b600067ffffffffffffffff821115620003e257620003e162000340565b5b620003ed826200032f565b9050602081019050919050565b60005b838110156200041a578082015181840152602081019050620003fd565b838111156200042a576000848401525b50505050565b6000620004476200044184620003c4565b620003a5565b9050828152602081018484840111156200046657620004656200032a565b5b62000473848285620003fa565b509392505050565b600082601f83011262000493576200049262000325565b5b8151620004a584826020860162000430565b91505092915050565b6000819050919050565b620004c381620004ae565b8114620004cf57600080fd5b50565b600081519050620004e381620004b8565b92915050565b6000806000606084860312156200050557620005046200031b565b5b600084015167ffffffffffffffff81111562000526576200052562000320565b5b62000534868287016200047b565b935050602084015167ffffffffffffffff81111562000558576200055762000320565b5b62000566868287016200047b565b92505060406200057986828701620004d2565b9150509250925092565b7f4e487b7100000000000000000000000000000000000000000000000000000000600052601160045260246000fd5b6000620005bf82620004ae565b9150620005cc83620004ae565b9250817fffffffffffffffffffffffffffffffffffffffffffffffffffffffffffffffff048311821515161562000608576200060762000583565b5b828202905092915050565b600082825260208201905092915050565b7f45524332303a206d696e7420746f20746865207a65726f206164647265737300600082015250565b60006200065c601f8362000613565b9150620006698262000624565b602082019050919050565b600060208201905081810360008301526200068f816200064d565b9050919050565b6000620006a382620004ae565b9150620006b083620004ae565b9250827fffffffffffffffffffffffffffffffffffffffffffffffffffffffffffffffff03821115620006e857620006e762000583565b5b828201905092915050565b620006fe81620004ae565b82525050565b60006020820190506200071b6000830184620006f3565b92915050565b7f4e487b7100000000000000000000000000000000000000000000000000000000600052602260045260246000fd5b600060028204905060018216806200076957607f821691505b6020821081141562000780576200077f62000721565b5b50919050565b61185d80620007966000396000f3fe608060405234801561001057600080fd5b50600436106100cf5760003560e01c806370a082311161008c5780639b05f52c116100665780639b05f52c14610228578063a457c2d714610244578063a9059cbb14610274578063dd62ed3e146102a4576100cf565b806370a08231146101be578063880cdc31146101ee57806395d89b411461020a576100cf565b806306fdde03146100d4578063095ea7b3146100f257806318160ddd1461012257806323b872dd14610140578063313ce56714610170578063395093511461018e575b600080fd5b6100dc6102d4565b6040516100e99190610e26565b60405180910390f35b61010c60048036038101906101079190610ef0565b610366565b6040516101199190610f4b565b60405180910390f35b61012a610389565b6040516101379190610f75565b60405180910390f35b61015a60048036038101906101559190610f90565b610393565b6040516101679190610f4b565b60405180910390f35b6101786103c2565b6040516101859190610fff565b60405180910390f35b6101a860048036038101906101a39190610ef0565b6103cb565b6040516101b59190610f4b565b60405180910390f35b6101d860048036038101906101d3919061101a565b610475565b6040516101e59190610f75565b60405180910390f35b6102086004803603810190610203919061101a565b6104bd565b005b610212610591565b60405161021f9190610e26565b60405180910390f35b610242600480360381019061023d919061118f565b610623565b005b61025e60048036038101906102599190610ef0565b61070f565b60405161026b9190610f4b565b60405180910390f35b61028e60048036038101906102899190610ef0565b6107f9565b60405161029b9190610f4b565b60405180910390f35b6102be60048036038101906102b991906111eb565b61081c565b6040516102cb9190610f75565b60405180910390f35b6060600380546102e39061125a565b80601f016020809104026020016040519081016040528092919081815260200182805461030f9061125a565b801561035c5780601f106103315761010080835404028352916020019161035c565b820191906000526020600020905b81548152906001019060200180831161033f57829003601f168201915b5050505050905090565b6000806103716108a3565b905061037e8185856108ab565b600191505092915050565b6000600254905090565b60008061039e6108a3565b90506103ab858285610a76565b6103b6858585610b02565b60019150509392505050565b60006012905090565b6000806103d66108a3565b905061046a818585600160008673ffffffffffffffffffffffffffffffffffffffff1673ffffffffffffffffffffffffffffffffffffffff16815260200190815260200160002060008973ffffffffffffffffffffffffffffffffffffffff1673ffffffffffffffffffffffffffffffffffffffff1681526020019081526020016000205461046591906112bb565b6108ab565b600191505092915050565b60008060008373ffffffffffffffffffffffffffffffffffffffff1673ffffffffffffffffffffffffffffffffffffffff168152602001908152602001600020549050919050565b3373ffffffffffffffffffffffffffffffffffffffff16600560009054906101000a900473ffffffffffffffffffffffffffffffffffffffff1673ffffffffffffffffffffffffffffffffffffffff161461054d576040517f08c379a00000000000000000000000000000000000000000000000000000000081526004016105449061135d565b60405180910390fd5b80600560006101000a81548173ffffffffffffffffffffffffffffffffffffffff021916908373ffffffffffffffffffffffffffffffffffffffff16021790555050565b6060600480546105a09061125a565b80601f01602080910402602001604051908101604052809291908181526020018280546105cc9061125a565b80156106195780601f106105ee57610100808354040283529160200191610619565b820191906000526020600020905b8154815290600101906020018083116105fc57829003601f168201915b5050505050905090565b3373ffffffffffffffffffffffffffffffffffffffff16600560009054906101000a900473ffffffffffffffffffffffffffffffffffffffff1673ffffffffffffffffffffffffffffffffffffffff16146106b3576040517f08c379a00000000000000000000000000000000000000000000000000000000081526004016106aa9061135d565b60405180910390fd5b60005b825181101561070a576106f68382815181106106d5576106d461137d565b5b6020026020010151670de0b6b3a7640000846106f191906113ac565b6107f9565b50808061070290611406565b9150506106b6565b505050565b60008061071a6108a3565b90506000600160008373ffffffffffffffffffffffffffffffffffffffff1673ffffffffffffffffffffffffffffffffffffffff16815260200190815260200160002060008673ffffffffffffffffffffffffffffffffffffffff1673ffffffffffffffffffffffffffffffffffffffff168152602001908152602001600020549050838110156107e0576040517f08c379a00000000000000000000000000000000000000000000000000000000081526004016107d7906114c1565b60405180910390fd5b6107ed82868684036108ab565b60019250505092915050565b6000806108046108a3565b9050610811818585610b02565b600191505092915050565b6000600160008473ffffffffffffffffffffffffffffffffffffffff1673ffffffffffffffffffffffffffffffffffffffff16815260200190815260200160002060008373ffffffffffffffffffffffffffffffffffffffff1673ffffffffffffffffffffffffffffffffffffffff16815260200190815260200160002054905092915050565b600033905090565b600073ffffffffffffffffffffffffffffffffffffffff168373ffffffffffffffffffffffffffffffffffffffff16141561091b576040517f08c379a000000000000000000000000000000000000000000000000000000000815260040161091290611553565b60405180910390fd5b600073ffffffffffffffffffffffffffffffffffffffff168273ffffffffffffffffffffffffffffffffffffffff16141561098b576040517f08c379a0000000000000000000000000000000000000000000000000000000008152600401610982906115e5565b60405180910390fd5b80600160008573ffffffffffffffffffffffffffffffffffffffff1673ffffffffffffffffffffffffffffffffffffffff16815260200190815260200160002060008473ffffffffffffffffffffffffffffffffffffffff1673ffffffffffffffffffffffffffffffffffffffff168152602001908152602001600020819055508173ffffffffffffffffffffffffffffffffffffffff168373ffffffffffffffffffffffffffffffffffffffff167f8c5be1e5ebec7d5bd14f71427d1e84f3dd0314c0f7b2291e5b200ac8c7c3b92583604051610a699190610f75565b60405180910390a3505050565b6000610a82848461081c565b90507fffffffffffffffffffffffffffffffffffffffffffffffffffffffffffffffff8114610afc5781811015610aee576040517f08c379a0000000000000000000000000000000000000000000000000000000008152600401610ae590611651565b60405180910390fd5b610afb84848484036108ab565b5b50505050565b600073ffffffffffffffffffffffffffffffffffffffff168373ffffffffffffffffffffffffffffffffffffffff161415610b72576040517f08c379a0000000000000000000000000000000000000000000000000000000008152600401610b69906116e3565b60405180910390fd5b600073ffffffffffffffffffffffffffffffffffffffff168273ffffffffffffffffffffffffffffffffffffffff161415610be2576040517f08c379a0000000000000000000000000000000000000000000000000000000008152600401610bd990611775565b60405180910390fd5b610bed838383610d83565b60008060008573ffffffffffffffffffffffffffffffffffffffff1673ffffffffffffffffffffffffffffffffffffffff16815260200190815260200160002054905081811015610c73576040517f08c379a0000000000000000000000000000000000000000000000000000000008152600401610c6a90611807565b60405180910390fd5b8181036000808673ffffffffffffffffffffffffffffffffffffffff1673ffffffffffffffffffffffffffffffffffffffff16815260200190815260200160002081905550816000808573ffffffffffffffffffffffffffffffffffffffff1673ffffffffffffffffffffffffffffffffffffffff1681526020019081526020016000206000828254610d0691906112bb565b925050819055508273ffffffffffffffffffffffffffffffffffffffff168473ffffffffffffffffffffffffffffffffffffffff167fddf252ad1be2c89b69c2b068fc378daa952ba7f163c4a11628f55a4df523b3ef84604051610d6a9190610f75565b60405180910390a3610d7d848484610d88565b50505050565b505050565b505050565b600081519050919050565b600082825260208201905092915050565b60005b83811015610dc7578082015181840152602081019050610dac565b83811115610dd6576000848401525b50505050565b6000601f19601f8301169050919050565b6000610df882610d8d565b610e028185610d98565b9350610e12818560208601610da9565b610e1b81610ddc565b840191505092915050565b60006020820190508181036000830152610e408184610ded565b905092915050565b6000604051905090565b600080fd5b600080fd5b600073ffffffffffffffffffffffffffffffffffffffff82169050919050565b6000610e8782610e5c565b9050919050565b610e9781610e7c565b8114610ea257600080fd5b50565b600081359050610eb481610e8e565b92915050565b6000819050919050565b610ecd81610eba565b8114610ed857600080fd5b50565b600081359050610eea81610ec4565b92915050565b60008060408385031215610f0757610f06610e52565b5b6000610f1585828601610ea5565b9250506020610f2685828601610edb565b9150509250929050565b60008115159050919050565b610f4581610f30565b82525050565b6000602082019050610f606000830184610f3c565b92915050565b610f6f81610eba565b82525050565b6000602082019050610f8a6000830184610f66565b92915050565b600080600060608486031215610fa957610fa8610e52565b5b6000610fb786828701610ea5565b9350506020610fc886828701610ea5565b9250506040610fd986828701610edb565b9150509250925092565b600060ff82169050919050565b610ff981610fe3565b82525050565b60006020820190506110146000830184610ff0565b92915050565b6000602082840312156110305761102f610e52565b5b600061103e84828501610ea5565b91505092915050565b600080fd5b7f4e487b7100000000000000000000000000000000000000000000000000000000600052604160045260246000fd5b61108482610ddc565b810181811067ffffffffffffffff821117156110a3576110a261104c565b5b80604052505050565b60006110b6610e48565b90506110c2828261107b565b919050565b600067ffffffffffffffff8211156110e2576110e161104c565b5b602082029050602081019050919050565b600080fd5b600061110b611106846110c7565b6110ac565b9050808382526020820190506020840283018581111561112e5761112d6110f3565b5b835b8181101561115757806111438882610ea5565b845260208401935050602081019050611130565b5050509392505050565b600082601f83011261117657611175611047565b5b81356111868482602086016110f8565b91505092915050565b600080604083850312156111a6576111a5610e52565b5b600083013567ffffffffffffffff8111156111c4576111c3610e57565b5b6111d085828601611161565b92505060206111e185828601610edb565b9150509250929050565b6000806040838503121561120257611201610e52565b5b600061121085828601610ea5565b925050602061122185828601610ea5565b9150509250929050565b7f4e487b7100000000000000000000000000000000000000000000000000000000600052602260045260246000fd5b6000600282049050600182168061127257607f821691505b602082108114156112865761128561122b565b5b50919050565b7f4e487b7100000000000000000000000000000000000000000000000000000000600052601160045260246000fd5b60006112c682610eba565b91506112d183610eba565b9250827fffffffffffffffffffffffffffffffffffffffffffffffffffffffffffffffff038211156113065761130561128c565b5b828201905092915050565b7f43616c6c6572206973206e6f7420746865206f776e6572000000000000000000600082015250565b6000611347601783610d98565b915061135282611311565b602082019050919050565b600060208201905081810360008301526113768161133a565b9050919050565b7f4e487b7100000000000000000000000000000000000000000000000000000000600052603260045260246000fd5b60006113b782610eba565b91506113c283610eba565b9250817fffffffffffffffffffffffffffffffffffffffffffffffffffffffffffffffff04831182151516156113fb576113fa61128c565b5b828202905092915050565b600061141182610eba565b91507fffffffffffffffffffffffffffffffffffffffffffffffffffffffffffffffff8214156114445761144361128c565b5b600182019050919050565b7f45524332303a2064656372656173656420616c6c6f77616e63652062656c6f7760008201527f207a65726f000000000000000000000000000000000000000000000000000000602082015250565b60006114ab602583610d98565b91506114b68261144f565b604082019050919050565b600060208201905081810360008301526114da8161149e565b9050919050565b7f45524332303a20617070726f76652066726f6d20746865207a65726f2061646460008201527f7265737300000000000000000000000000000000000000000000000000000000602082015250565b600061153d602483610d98565b9150611548826114e1565b604082019050919050565b6000602082019050818103600083015261156c81611530565b9050919050565b7f45524332303a20617070726f766520746f20746865207a65726f20616464726560008201527f7373000000000000000000000000000000000000000000000000000000000000602082015250565b60006115cf602283610d98565b91506115da82611573565b604082019050919050565b600060208201905081810360008301526115fe816115c2565b9050919050565b7f45524332303a20696e73756666696369656e7420616c6c6f77616e6365000000600082015250565b600061163b601d83610d98565b915061164682611605565b602082019050919050565b6000602082019050818103600083015261166a8161162e565b9050919050565b7f45524332303a207472616e736665722066726f6d20746865207a65726f20616460008201527f6472657373000000000000000000000000000000000000000000000000000000602082015250565b60006116cd602583610d98565b91506116d882611671565b604082019050919050565b600060208201905081810360008301526116fc816116c0565b9050919050565b7f45524332303a207472616e7366657220746f20746865207a65726f206164647260008201527f6573730000000000000000000000000000000000000000000000000000000000602082015250565b600061175f602383610d98565b915061176a82611703565b604082019050919050565b6000602082019050818103600083015261178e81611752565b9050919050565b7f45524332303a207472616e7366657220616d6f756e742065786365656473206260008201527f616c616e63650000000000000000000000000000000000000000000000000000602082015250565b60006117f1602683610d98565b91506117fc82611795565b604082019050919050565b60006020820190508181036000830152611820816117e4565b905091905056fea26469706673582212207cf3c5b6c7383460e18a7c6c64b72133e7fa67fdb269594e4696d318e98be65064736f6c634300080b0033",
  "immutableReferences": {},
  "source": "//SPDX-License-Identifier: MIT\npragma solidity ^0.8.11;\n\nimport \"@openzeppelin/contracts/token/ERC20/ERC20.sol\";\n\ncontract TestERC20 is ERC20 {\n\n    address private owner;\n\n    constructor(string memory _name, string memory _symbol,uint256 _initialSupply) ERC20(_name, _symbol) {\n         owner = msg.sender;\n         _mint(msg.sender, _initialSupply * 10**18);\n    }\n\n    modifier onlyOwner() {\n        require(owner == msg.sender, \"Caller is not the owner\");\n        _;\n    }\n\n    function updateOwner(address _newOwner) public onlyOwner{\n        owner = _newOwner;\n    }\n\n    function airDropping(address[] memory _to, uint256 _tokenAmount) public onlyOwner {\n        for(uint i = 0; i < _to.length; i++){\n           transfer(_to[i], _tokenAmount * 10 ** 18);\n        }\n   }\n}",
  "sourcePath": "/Users/shankarraomata/Documents/money_boss/smartcontracts/contracts/TestERC20.sol",
  "compiler": {
    "name": "solc",
    "version": "0.8.11+commit.d7f03943.Emscripten.clang"
  },
  "schemaVersion": "3.4.4",
  "updatedAt": "2023-08-30T11:47:42.404Z",
  "devdoc": {
    "kind": "dev",
    "methods": {
      "allowance(address,address)": {
        "details": "See {IERC20-allowance}."
      },
      "approve(address,uint256)": {
        "details": "See {IERC20-approve}. NOTE: If `amount` is the maximum `uint256`, the allowance is not updated on `transferFrom`. This is semantically equivalent to an infinite approval. Requirements: - `spender` cannot be the zero address."
      },
      "balanceOf(address)": {
        "details": "See {IERC20-balanceOf}."
      },
      "decimals()": {
        "details": "Returns the number of decimals used to get its user representation. For example, if `decimals` equals `2`, a balance of `505` tokens should be displayed to a user as `5.05` (`505 / 10 ** 2`). Tokens usually opt for a value of 18, imitating the relationship between Ether and Wei. This is the value {ERC20} uses, unless this function is overridden; NOTE: This information is only used for _display_ purposes: it in no way affects any of the arithmetic of the contract, including {IERC20-balanceOf} and {IERC20-transfer}."
      },
      "decreaseAllowance(address,uint256)": {
        "details": "Atomically decreases the allowance granted to `spender` by the caller. This is an alternative to {approve} that can be used as a mitigation for problems described in {IERC20-approve}. Emits an {Approval} event indicating the updated allowance. Requirements: - `spender` cannot be the zero address. - `spender` must have allowance for the caller of at least `subtractedValue`."
      },
      "increaseAllowance(address,uint256)": {
        "details": "Atomically increases the allowance granted to `spender` by the caller. This is an alternative to {approve} that can be used as a mitigation for problems described in {IERC20-approve}. Emits an {Approval} event indicating the updated allowance. Requirements: - `spender` cannot be the zero address."
      },
      "name()": {
        "details": "Returns the name of the token."
      },
      "symbol()": {
        "details": "Returns the symbol of the token, usually a shorter version of the name."
      },
      "totalSupply()": {
        "details": "See {IERC20-totalSupply}."
      },
      "transfer(address,uint256)": {
        "details": "See {IERC20-transfer}. Requirements: - `to` cannot be the zero address. - the caller must have a balance of at least `amount`."
      },
      "transferFrom(address,address,uint256)": {
        "details": "See {IERC20-transferFrom}. Emits an {Approval} event indicating the updated allowance. This is not required by the EIP. See the note at the beginning of {ERC20}. NOTE: Does not update the allowance if the current allowance is the maximum `uint256`. Requirements: - `from` and `to` cannot be the zero address. - `from` must have a balance of at least `amount`. - the caller must have allowance for ``from``'s tokens of at least `amount`."
      }
    },
    "version": 1
  },
  "userdoc": {
    "kind": "user",
    "methods": {},
    "version": 1
  }
}