{
  "contractName": "TokenCreator",
  "abi": [
    {
      "inputs": [
        {
          "internalType": "contract IERC20",
          "name": "_contractAddress",
          "type": "address"
        }
      ],
      "name": "updateTokenList",
      "outputs": [],
      "stateMutability": "nonpayable",
      "type": "function"
    },
    {
      "inputs": [
        {
          "internalType": "address",
          "name": "_myAddress",
          "type": "address"
        }
      ],
      "name": "getTokenList",
      "outputs": [
        {
          "internalType": "contract IERC20[]",
          "name": "",
          "type": "address[]"
        }
      ],
      "stateMutability": "view",
      "type": "function"
    }
  ],
  "bytecode": "0x608060405234801561001057600080fd5b50610456806100206000396000f3fe608060405234801561001057600080fd5b50600436106100365760003560e01c8063d8a307321461003b578063e8f9a34c1461006b575b600080fd5b61005560048036038101906100509190610258565b610087565b6040516100629190610393565b60405180910390f35b610085600480360381019061008091906103f3565b610153565b005b60606000808373ffffffffffffffffffffffffffffffffffffffff1673ffffffffffffffffffffffffffffffffffffffff16815260200190815260200160002080548060200260200160405190810160405280929190818152602001828054801561014757602002820191906000526020600020905b8160009054906101000a900473ffffffffffffffffffffffffffffffffffffffff1673ffffffffffffffffffffffffffffffffffffffff16815260200190600101908083116100fd575b50505050509050919050565b6000803373ffffffffffffffffffffffffffffffffffffffff1673ffffffffffffffffffffffffffffffffffffffff168152602001908152602001600020819080600181540180825580915050600190039060005260206000200160009091909190916101000a81548173ffffffffffffffffffffffffffffffffffffffff021916908373ffffffffffffffffffffffffffffffffffffffff16021790555050565b600080fd5b600073ffffffffffffffffffffffffffffffffffffffff82169050919050565b6000610225826101fa565b9050919050565b6102358161021a565b811461024057600080fd5b50565b6000813590506102528161022c565b92915050565b60006020828403121561026e5761026d6101f5565b5b600061027c84828501610243565b91505092915050565b600081519050919050565b600082825260208201905092915050565b6000819050602082019050919050565b6000819050919050565b60006102d66102d16102cc846101fa565b6102b1565b6101fa565b9050919050565b60006102e8826102bb565b9050919050565b60006102fa826102dd565b9050919050565b61030a816102ef565b82525050565b600061031c8383610301565b60208301905092915050565b6000602082019050919050565b600061034082610285565b61034a8185610290565b9350610355836102a1565b8060005b8381101561038657815161036d8882610310565b975061037883610328565b925050600181019050610359565b5085935050505092915050565b600060208201905081810360008301526103ad8184610335565b905092915050565b60006103c08261021a565b9050919050565b6103d0816103b5565b81146103db57600080fd5b50565b6000813590506103ed816103c7565b92915050565b600060208284031215610409576104086101f5565b5b6000610417848285016103de565b9150509291505056fea26469706673582212200a6696e53cb044f595d714b6e65f97dbcb6d1be73b3ccfaa0616466f90bf080e64736f6c634300080b0033",
  "immutableReferences": {},
  "source": "//SPDX-License-Identifier: MIT\npragma solidity ^0.8.11;\n\nimport \"@openzeppelin/contracts/token/ERC20/IERC20.sol\";\n\ncontract TokenCreator {\n    mapping(address => IERC20[]) creatorsToken;\n\n    function updateTokenList(IERC20 _contractAddress) public\n    {\n        creatorsToken[msg.sender].push(IERC20(_contractAddress));\n    }\n\n    function getTokenList(address _myAddress) public view returns (IERC20[] memory)\n    {\n        return creatorsToken[_myAddress];\n    }\n    \n\n}",
  "sourcePath": "/Users/shankarraomata/Documents/money_boss/smartcontracts/contracts/TokenCreator.sol",
  "compiler": {
    "name": "solc",
    "version": "0.8.11+commit.d7f03943.Emscripten.clang"
  },
  "schemaVersion": "3.4.4",
  "updatedAt": "2023-08-30T11:47:42.410Z",
  "devdoc": {
    "kind": "dev",
    "methods": {},
    "version": 1
  },
  "userdoc": {
    "kind": "user",
    "methods": {},
    "version": 1
  }
}